:100000000C9446000C945D000C945D000C945D0013
:100010000C945D000C945D000C945D000C945D00EC
:100020000C945D000C945D000C945D000C945D00DC
:100030000C945D000C945D000C945D000C945D00CC
:100040000C945D000C945D000C945D000C945D00BC
:100050000C945D000C945D000C945D000C945D00AC
:100060000C945D000C945D000C945D000C945D009C
:100070000C945D000C945D000C945D000C945D008C
:100080000C945D000C945D000C945D0011241FBE67
:10009000CFEFD0E4DEBFCDBF11E0A0E0B1E0E2E3FE
:1000A000F1E000E00BBF02C007900D92AE30B10747
:1000B000D9F70E9470000C9497000C940000CF9325
:1000C000C82F8A3019F48DE00E945F009091C00023
:1000D00095FFFCCFC093C60080E090E0CF910895DB
:1000E00011B88FEF82B987B918B880B1811103C0F8
:1000F00080E488B9FACF833018F480E688B9F5CF68
:10010000853018F480E788B9F0CF873018F488E399
:1001100088B9EBCF8A3018F48CE388B9E6CF8D30FC
:1001200018F48EE388B9E1CF8FE388B9DECFF89475
:02013000FFCFFF
:0E01320000000002000000005F00000000005E
:00000001FF
